{
  "_format": "hh-sol-artifact-1",
  "contractName": "Election",
  "sourceName": "contracts/Election.sol",
  "abi": [
    {
      "inputs": [],
      "stateMutability": "nonpayable",
      "type": "constructor"
    },
    {
      "inputs": [
        {
          "internalType": "string",
          "name": "message",
          "type": "string"
        }
      ],
      "name": "ElectionRevert",
      "type": "error"
    },
    {
      "inputs": [
        {
          "internalType": "string",
          "name": "messege",
          "type": "string"
        }
      ],
      "name": "NTTRevert",
      "type": "error"
    },
    {
      "anonymous": false,
      "inputs": [
        {
          "indexed": true,
          "internalType": "address",
          "name": "burner",
          "type": "address"
        },
        {
          "indexed": false,
          "internalType": "uint256",
          "name": "value",
          "type": "uint256"
        }
      ],
      "name": "Burn",
      "type": "event"
    },
    {
      "anonymous": false,
      "inputs": [
        {
          "indexed": true,
          "internalType": "address",
          "name": "previousOwner",
          "type": "address"
        },
        {
          "indexed": true,
          "internalType": "address",
          "name": "newOwner",
          "type": "address"
        }
      ],
      "name": "OwnershipTransferred",
      "type": "event"
    },
    {
      "anonymous": false,
      "inputs": [
        {
          "indexed": true,
          "internalType": "address",
          "name": "from",
          "type": "address"
        },
        {
          "indexed": true,
          "internalType": "address",
          "name": "to",
          "type": "address"
        },
        {
          "indexed": false,
          "internalType": "uint256",
          "name": "amount",
          "type": "uint256"
        }
      ],
      "name": "Transfer",
      "type": "event"
    },
    {
      "anonymous": false,
      "inputs": [
        {
          "indexed": false,
          "internalType": "string",
          "name": "_name",
          "type": "string"
        }
      ],
      "name": "createdCand",
      "type": "event"
    },
    {
      "anonymous": false,
      "inputs": [
        {
          "indexed": true,
          "internalType": "uint256",
          "name": "_idCandidate",
          "type": "uint256"
        }
      ],
      "name": "votedEvent",
      "type": "event"
    },
    {
      "inputs": [
        {
          "internalType": "string",
          "name": "_name",
          "type": "string"
        }
      ],
      "name": "addCandidate",
      "outputs": [],
      "stateMutability": "nonpayable",
      "type": "function"
    },
    {
      "inputs": [
        {
          "internalType": "address",
          "name": "account",
          "type": "address"
        }
      ],
      "name": "balanceOf",
      "outputs": [
        {
          "internalType": "uint256",
          "name": "",
          "type": "uint256"
        }
      ],
      "stateMutability": "view",
      "type": "function"
    },
    {
      "inputs": [
        {
          "internalType": "uint256",
          "name": "amount",
          "type": "uint256"
        }
      ],
      "name": "burn",
      "outputs": [
        {
          "internalType": "bool",
          "name": "",
          "type": "bool"
        }
      ],
      "stateMutability": "nonpayable",
      "type": "function"
    },
    {
      "inputs": [],
      "name": "decimals",
      "outputs": [
        {
          "internalType": "uint256",
          "name": "",
          "type": "uint256"
        }
      ],
      "stateMutability": "view",
      "type": "function"
    },
    {
      "inputs": [],
      "name": "mintNTT",
      "outputs": [],
      "stateMutability": "nonpayable",
      "type": "function"
    },
    {
      "inputs": [],
      "name": "name",
      "outputs": [
        {
          "internalType": "string",
          "name": "",
          "type": "string"
        }
      ],
      "stateMutability": "view",
      "type": "function"
    },
    {
      "inputs": [],
      "name": "owner",
      "outputs": [
        {
          "internalType": "address",
          "name": "",
          "type": "address"
        }
      ],
      "stateMutability": "view",
      "type": "function"
    },
    {
      "inputs": [],
      "name": "renounceOwnership",
      "outputs": [],
      "stateMutability": "nonpayable",
      "type": "function"
    },
    {
      "inputs": [],
      "name": "s_VotesCompleted",
      "outputs": [
        {
          "internalType": "address",
          "name": "",
          "type": "address"
        }
      ],
      "stateMutability": "view",
      "type": "function"
    },
    {
      "inputs": [
        {
          "internalType": "uint256",
          "name": "",
          "type": "uint256"
        }
      ],
      "name": "s_candidate",
      "outputs": [
        {
          "internalType": "uint256",
          "name": "id",
          "type": "uint256"
        },
        {
          "internalType": "string",
          "name": "name",
          "type": "string"
        },
        {
          "internalType": "uint256",
          "name": "voteCount",
          "type": "uint256"
        }
      ],
      "stateMutability": "view",
      "type": "function"
    },
    {
      "inputs": [],
      "name": "s_idCandidate",
      "outputs": [
        {
          "internalType": "uint256",
          "name": "_value",
          "type": "uint256"
        }
      ],
      "stateMutability": "view",
      "type": "function"
    },
    {
      "inputs": [],
      "name": "s_owner",
      "outputs": [
        {
          "internalType": "address",
          "name": "",
          "type": "address"
        }
      ],
      "stateMutability": "view",
      "type": "function"
    },
    {
      "inputs": [],
      "name": "s_timeStarted",
      "outputs": [
        {
          "internalType": "uint256",
          "name": "",
          "type": "uint256"
        }
      ],
      "stateMutability": "view",
      "type": "function"
    },
    {
      "inputs": [],
      "name": "s_totalSupply",
      "outputs": [
        {
          "internalType": "uint256",
          "name": "",
          "type": "uint256"
        }
      ],
      "stateMutability": "view",
      "type": "function"
    },
    {
      "inputs": [
        {
          "internalType": "address",
          "name": "",
          "type": "address"
        }
      ],
      "name": "s_voters",
      "outputs": [
        {
          "internalType": "bool",
          "name": "",
          "type": "bool"
        }
      ],
      "stateMutability": "view",
      "type": "function"
    },
    {
      "inputs": [],
      "name": "symbol",
      "outputs": [
        {
          "internalType": "string",
          "name": "",
          "type": "string"
        }
      ],
      "stateMutability": "view",
      "type": "function"
    },
    {
      "inputs": [],
      "name": "timeElection",
      "outputs": [],
      "stateMutability": "nonpayable",
      "type": "function"
    },
    {
      "inputs": [
        {
          "internalType": "address",
          "name": "recipient",
          "type": "address"
        },
        {
          "internalType": "uint256",
          "name": "amount",
          "type": "uint256"
        }
      ],
      "name": "transfer",
      "outputs": [
        {
          "internalType": "bool",
          "name": "",
          "type": "bool"
        }
      ],
      "stateMutability": "nonpayable",
      "type": "function"
    },
    {
      "inputs": [
        {
          "internalType": "address",
          "name": "newOwner",
          "type": "address"
        }
      ],
      "name": "transferOwnership",
      "outputs": [],
      "stateMutability": "nonpayable",
      "type": "function"
    },
    {
      "inputs": [
        {
          "internalType": "uint256",
          "name": "_id",
          "type": "uint256"
        }
      ],
      "name": "vote",
      "outputs": [],
      "stateMutability": "nonpayable",
      "type": "function"
    }
  ],
  "bytecode": "0x6080604052600780546001600160a01b031916736fe19081876450c215439b1a174b5e63d37bdc5f17905534801561003657600080fd5b506302aea54061004533610077565b600381905530600090815260016020526040902055600480546001600160a01b031990811633918216171790556100c7565b600080546001600160a01b038381166001600160a01b0319831681178455604051919092169283917f8be0079c531659141344cd1fd0a4f28419497f9722a3daafe3b4186f6b6457e09190a35050565b611425806100d66000396000f3fe608060405234801561001057600080fd5b506004361061016c5760003560e01c80638799dd69116100cd578063c10c6e8411610081578063d15ebf1911610066578063d15ebf191461035f578063e397824014610381578063f2fde38b146103a157600080fd5b8063c10c6e8414610336578063cec5e3221461033f57600080fd5b806395d89b41116100b257806395d89b41146102df578063a756126e1461031b578063a9059cbb1461032357600080fd5b80638799dd69146102965780638da5cb5b146102a057600080fd5b8063462e91ec116101245780636e433ae2116101095780636e433ae21461023557806370a0823114610258578063715018a61461028e57600080fd5b8063462e91ec146102195780636a74a0fc1461022c57600080fd5b8063313ce56711610155578063313ce567146101d857806338da91ef146101ee57806342966c68146101f657600080fd5b80630121b93f1461017157806306fdde0314610186575b600080fd5b61018461017f366004611218565b6103b4565b005b6101c26040518060400160405280600f81526020017f4e6f5472616e73666572546f6b656e000000000000000000000000000000000081525081565b6040516101cf9190611299565b60405180910390f35b6101e0600081565b6040519081526020016101cf565b6101846105ea565b610209610204366004611218565b6106c6565b60405190151581526020016101cf565b610184610227366004611150565b6107df565b6101e060035481565b610209610243366004611106565b60096020526000908152604090205460ff1681565b6101e0610266366004611106565b73ffffffffffffffffffffffffffffffffffffffff1660009081526001602052604090205490565b6101846109bd565b6005546101e09081565b60005473ffffffffffffffffffffffffffffffffffffffff165b60405173ffffffffffffffffffffffffffffffffffffffff90911681526020016101cf565b6101c26040518060400160405280600381526020017f4e5454000000000000000000000000000000000000000000000000000000000081525081565b610184610a4a565b610209610331366004611127565b610b96565b6101e060065481565b6007546102ba9073ffffffffffffffffffffffffffffffffffffffff1681565b61037261036d366004611218565b610d45565b6040516101cf939291906112ac565b6004546102ba9073ffffffffffffffffffffffffffffffffffffffff1681565b6101846103af366004611106565b610df0565b60065442111561044b576040517f50f547ea00000000000000000000000000000000000000000000000000000000815260206004820152602260248201527f566f74696e6720686173206e6f7420737461727465642f6973206e6f74206f7660448201527f657200000000000000000000000000000000000000000000000000000000000060648201526084015b60405180910390fd5b3360009081526009602052604090205460ff16156104c5576040517f50f547ea00000000000000000000000000000000000000000000000000000000815260206004820181905260248201527f4974206973206f6e6c7920706f737369626c6520746f20766f7465206f6e63656044820152606401610442565b336000908152600160205260409020546001111561053f576040517f50f547ea00000000000000000000000000000000000000000000000000000000815260206004820152601d60248201527f446f6573206e6f74206861766520746865204e545420746f20766f74650000006044820152606401610442565b6007546105639073ffffffffffffffffffffffffffffffffffffffff166001610f20565b33600090815260096020908152604080832080547fffffffffffffffffffffffffffffffffffffffffffffffffffffffffffffff00166001179055838352600890915281206002018054916105b783611358565b909155505060405181907ffff3c900d938d21d0990d786e819f29b8d05c1ef587b462b939609625b684b1690600090a250565b3360009081526002602052604090205460ff161561063e576040517f08c379a00000000000000000000000000000000000000000000000000000000081526020600482015260006024820152604401610442565b30600090815260016020819052604082208054919290916106609084906112ed565b909155505033600090815260016020819052604082208054919290916106879084906112d5565b909155505033600090815260026020526040902080547fffffffffffffffffffffffffffffffffffffffffffffffffffffffffffffff00166001179055565b33600090815260016020526040812054821115610765576040517ff585c2b100000000000000000000000000000000000000000000000000000000815260206004820152602660248201527f446f6573206e6f7420686176652073756666696369656e742066756e6473207460448201527f6f206275726e00000000000000000000000000000000000000000000000000006064820152608401610442565b33600090815260016020526040812080548492906107849084906112ed565b92505081905550816003600082825461079d91906112ed565b909155505060405182815233907fcc16f5dbb4873280815c1ee09dbd06736cffcc184412cf7a71a0fdb75d397ca59060200160405180910390a2506001919050565b60005473ffffffffffffffffffffffffffffffffffffffff163314610860576040517f08c379a000000000000000000000000000000000000000000000000000000000815260206004820181905260248201527f4f776e61626c653a2063616c6c6572206973206e6f7420746865206f776e65726044820152606401610442565b600654421015610918576040517f50f547ea00000000000000000000000000000000000000000000000000000000815260206004820152604760248201527f566f74696e672068617320737461727465642c206974206973206e6f7420706f60448201527f737369626c6520746f206164642063616e6469646174657320647572696e672060648201527f766f74696e672e00000000000000000000000000000000000000000000000000608482015260a401610442565b610926600580546001019055565b600061093160055490565b60408051606081018252828152602080820186815260008385018190528581526008835293909320825181559251805194955091936109769260018501920190611044565b50604091820151600290910155517f59fdb5fddc06cd8cfef37e1f1004fa2a9f1991e9f58937f22877ca7bbed77a1e906109b1908490611299565b60405180910390a15050565b60005473ffffffffffffffffffffffffffffffffffffffff163314610a3e576040517f08c379a000000000000000000000000000000000000000000000000000000000815260206004820181905260248201527f4f776e61626c653a2063616c6c6572206973206e6f7420746865206f776e65726044820152606401610442565b610a486000610fcf565b565b60005473ffffffffffffffffffffffffffffffffffffffff163314610acb576040517f08c379a000000000000000000000000000000000000000000000000000000000815260206004820181905260248201527f4f776e61626c653a2063616c6c6572206973206e6f7420746865206f776e65726044820152606401610442565b600654421015610b83576040517f50f547ea00000000000000000000000000000000000000000000000000000000815260206004820152605d60248201527f566f74696e672068617320737461727465642c206974206973206e6f7420706f60448201527f737369626c6520746f206368616e6765207468652074696d6520756e74696c2060648201527f74686520656e64206f662074686520766f74696e6720706572696f642e000000608482015260a401610442565b610b91426301e133806112d5565b600655565b6000805473ffffffffffffffffffffffffffffffffffffffff163314610c18576040517f08c379a000000000000000000000000000000000000000000000000000000000815260206004820181905260248201527f4f776e61626c653a2063616c6c6572206973206e6f7420746865206f776e65726044820152606401610442565b33600090815260016020526040902054821115610c91576040517ff585c2b100000000000000000000000000000000000000000000000000000000815260206004820152601260248201527f496e73756666696369656e742066756e647300000000000000000000000000006044820152606401610442565b3360009081526001602052604081208054849290610cb09084906112ed565b909155505073ffffffffffffffffffffffffffffffffffffffff831660009081526001602052604081208054849290610cea9084906112d5565b909155505060405182815273ffffffffffffffffffffffffffffffffffffffff84169033907fddf252ad1be2c89b69c2b068fc378daa952ba7f163c4a11628f55a4df523b3ef9060200160405180910390a350600192915050565b60086020526000908152604090208054600182018054919291610d6790611304565b80601f0160208091040260200160405190810160405280929190818152602001828054610d9390611304565b8015610de05780601f10610db557610100808354040283529160200191610de0565b820191906000526020600020905b815481529060010190602001808311610dc357829003601f168201915b5050505050908060020154905083565b60005473ffffffffffffffffffffffffffffffffffffffff163314610e71576040517f08c379a000000000000000000000000000000000000000000000000000000000815260206004820181905260248201527f4f776e61626c653a2063616c6c6572206973206e6f7420746865206f776e65726044820152606401610442565b73ffffffffffffffffffffffffffffffffffffffff8116610f14576040517f08c379a000000000000000000000000000000000000000000000000000000000815260206004820152602660248201527f4f776e61626c653a206e6577206f776e657220697320746865207a65726f206160448201527f64647265737300000000000000000000000000000000000000000000000000006064820152608401610442565b610f1d81610fcf565b50565b3360009081526001602052604081208054839290610f3f9084906112ed565b909155505073ffffffffffffffffffffffffffffffffffffffff821660009081526001602052604081208054839290610f799084906112d5565b909155505060405181815273ffffffffffffffffffffffffffffffffffffffff83169033907fddf252ad1be2c89b69c2b068fc378daa952ba7f163c4a11628f55a4df523b3ef9060200160405180910390a35050565b6000805473ffffffffffffffffffffffffffffffffffffffff8381167fffffffffffffffffffffffff0000000000000000000000000000000000000000831681178455604051919092169283917f8be0079c531659141344cd1fd0a4f28419497f9722a3daafe3b4186f6b6457e09190a35050565b82805461105090611304565b90600052602060002090601f01602090048101928261107257600085556110b8565b82601f1061108b57805160ff19168380011785556110b8565b828001600101855582156110b8579182015b828111156110b857825182559160200191906001019061109d565b506110c49291506110c8565b5090565b5b808211156110c457600081556001016110c9565b803573ffffffffffffffffffffffffffffffffffffffff8116811461110157600080fd5b919050565b600060208284031215611117578081fd5b611120826110dd565b9392505050565b60008060408385031215611139578081fd5b611142836110dd565b946020939093013593505050565b600060208284031215611161578081fd5b813567ffffffffffffffff80821115611178578283fd5b818401915084601f83011261118b578283fd5b81358181111561119d5761119d6113c0565b604051601f82017fffffffffffffffffffffffffffffffffffffffffffffffffffffffffffffffe0908116603f011681019083821181831017156111e3576111e36113c0565b816040528281528760208487010111156111fb578586fd5b826020860160208301379182016020019490945295945050505050565b600060208284031215611229578081fd5b5035919050565b60008151808452815b8181101561125557602081850181015186830182015201611239565b818111156112665782602083870101525b50601f017fffffffffffffffffffffffffffffffffffffffffffffffffffffffffffffffe0169290920160200192915050565b6020815260006111206020830184611230565b8381526060602082015260006112c56060830185611230565b9050826040830152949350505050565b600082198211156112e8576112e8611391565b500190565b6000828210156112ff576112ff611391565b500390565b600181811c9082168061131857607f821691505b60208210811415611352577f4e487b7100000000000000000000000000000000000000000000000000000000600052602260045260246000fd5b50919050565b60007fffffffffffffffffffffffffffffffffffffffffffffffffffffffffffffffff82141561138a5761138a611391565b5060010190565b7f4e487b7100000000000000000000000000000000000000000000000000000000600052601160045260246000fd5b7f4e487b7100000000000000000000000000000000000000000000000000000000600052604160045260246000fdfea264697066735822122051d2110bb5139edae404683b938b55e70308545e1fdd7ceaa101439ae0a37e7a64736f6c63430008040033",
  "linkReferences": {},
  "deployedLinkReferences": {}
}